S01D000050617373776F72644261736564446F6F724C6F636B2E73726563B8
S113000071C0000086C0000084C0000082C00000EF
S113001080C000007EC000007CC000007AC00000E8
S113002078C0000076C0000074C0000072C00000F8
S113003070C000006EC000006CC000006AC0000008
S113004068C0000066C0000064C0000062C0000018
S113005060C000005EC000005CC000005AC0000028
S113006058C0000056C0000054C0000052C0000038
S113007050C000004EC000004CC000004AC0000048
S113008048C0000046C0000044C0000042C0000058
S113009040C000003EC000003CC000003AC0000068
S11300A038C0000036C0000034C0000032C0000078
S11300B030C000002EC000002CC000002AC0000088
S11300C028C0000026C0000024C0000022C0000098
S11300D020C000001EC000001CC000001AC00000A8
S11300E018C0000011241FBECFEFD1E2DEBFCDBF88
S11300F000E00CBF12E0A0E0B2E0E6EAF1E000E0CC
S11301000BBF02C007900D92A031B107D9F73BD0C5
S113011048C076CF85B1806C85B982B18FEF82B942
S1130120089584B1806C84B981B18FEF81B9089549
S113013082B92F982E9A2FE788E391E021508040CE
S11301409040E1F700C000002E98089582B985B16F
S1130150806C85B92FEF80E792E021508040904079
S1130160E1F700C000002E980895CF93DF93EC01CF
S11301708881882329F02196E9DF89918111FCCFB8
S1130180DF91CF910895CDDFC5DF81E0D1DF88E332
S1130190CFDF8CE0CDDF80E092E0E7DF80ECC8DFEA
S10901A0FFCFF894FFCF2D
S11301A6454E5445522054484520434F444500008B
S9030000FC
